{
  "contractName": "Lottery",
  "abi": [
    {
      "inputs": [],
      "stateMutability": "nonpayable",
      "type": "constructor"
    },
    {
      "inputs": [],
      "name": "manager",
      "outputs": [
        {
          "internalType": "address",
          "name": "",
          "type": "address"
        }
      ],
      "stateMutability": "view",
      "type": "function"
    },
    {
      "inputs": [
        {
          "internalType": "uint256",
          "name": "",
          "type": "uint256"
        }
      ],
      "name": "players",
      "outputs": [
        {
          "internalType": "address",
          "name": "",
          "type": "address"
        }
      ],
      "stateMutability": "view",
      "type": "function"
    },
    {
      "inputs": [],
      "name": "enterLottery",
      "outputs": [],
      "stateMutability": "payable",
      "type": "function"
    },
    {
      "inputs": [],
      "name": "pickWinner",
      "outputs": [],
      "stateMutability": "nonpayable",
      "type": "function"
    }
  ],
  "bytecode": "0x608060405234801561001057600080fd5b50336000806101000a81548173ffffffffffffffffffffffffffffffffffffffff021916908373ffffffffffffffffffffffffffffffffffffffff160217905550610711806100606000396000f3fe60806040526004361061003f5760003560e01c8063481c6a75146100445780635d495aea1461006f578063c1af578514610086578063f71d96cb14610090575b600080fd5b34801561005057600080fd5b506100596100cd565b6040516100669190610422565b60405180910390f35b34801561007b57600080fd5b506100846100f1565b005b61008e61024d565b005b34801561009c57600080fd5b506100b760048036038101906100b29190610478565b6102c5565b6040516100c49190610422565b60405180910390f35b60008054906101000a900473ffffffffffffffffffffffffffffffffffffffff1681565b60008054906101000a900473ffffffffffffffffffffffffffffffffffffffff1673ffffffffffffffffffffffffffffffffffffffff163373ffffffffffffffffffffffffffffffffffffffff161461014957600080fd5b6000600180549050610159610304565b61016391906104d4565b90506001818154811061017957610178610505565b5b9060005260206000200160009054906101000a900473ffffffffffffffffffffffffffffffffffffffff1673ffffffffffffffffffffffffffffffffffffffff166108fc479081150290604051600060405180830381858888f193505050501580156101e9573d6000803e3d6000fd5b50600067ffffffffffffffff81111561020557610204610534565b5b6040519080825280602002602001820160405280156102335781602001602082028036833780820191505090505b506001908051906020019061024992919061033a565b5050565b662386f26fc10000341161026057600080fd5b6001339080600181540180825580915050600190039060005260206000200160009091909190916101000a81548173ffffffffffffffffffffffffffffffffffffffff021916908373ffffffffffffffffffffffffffffffffffffffff160217905550565b600181815481106102d557600080fd5b906000526020600020016000915054906101000a900473ffffffffffffffffffffffffffffffffffffffff1681565b60004442600160405160200161031c939291906106a2565b6040516020818303038152906040528051906020012060001c905090565b8280548282559060005260206000209081019282156103b3579160200282015b828111156103b25782518260006101000a81548173ffffffffffffffffffffffffffffffffffffffff021916908373ffffffffffffffffffffffffffffffffffffffff1602179055509160200191906001019061035a565b5b5090506103c091906103c4565b5090565b5b808211156103dd5760008160009055506001016103c5565b5090565b600073ffffffffffffffffffffffffffffffffffffffff82169050919050565b600061040c826103e1565b9050919050565b61041c81610401565b82525050565b60006020820190506104376000830184610413565b92915050565b600080fd5b6000819050919050565b61045581610442565b811461046057600080fd5b50565b6000813590506104728161044c565b92915050565b60006020828403121561048e5761048d61043d565b5b600061049c84828501610463565b91505092915050565b7f4e487b7100000000000000000000000000000000000000000000000000000000600052601260045260246000fd5b60006104df82610442565b91506104ea83610442565b9250826104fa576104f96104a5565b5b828206905092915050565b7f4e487b7100000000000000000000000000000000000000000000000000000000600052603260045260246000fd5b7f4e487b7100000000000000000000000000000000000000000000000000000000600052604160045260246000fd5b6000819050919050565b61057e61057982610442565b610563565b82525050565b600081549050919050565b600081905092915050565b60008190508160005260206000209050919050565b6105b881610401565b82525050565b60006105ca83836105af565b60208301905092915050565b60008160001c9050919050565b600073ffffffffffffffffffffffffffffffffffffffff82169050919050565b6000610616610611836105d6565b6105e3565b9050919050565b60006106298254610603565b9050919050565b6000600182019050919050565b600061064882610584565b610652818561058f565b935061065d8361059a565b8060005b83811015610695576106728261061d565b61067c88826105be565b975061068783610630565b925050600181019050610661565b5085935050505092915050565b60006106ae828661056d565b6020820191506106be828561056d565b6020820191506106ce828461063d565b915081905094935050505056fea2646970667358221220712a59142d310caa6464d2ed6bd63e268a61d8159dbb0b13b139f46fbf5ce8aa64736f6c634300080d0033",
  "immutableReferences": {},
  "source": "pragma solidity ^0.8.13;\n\n/*\nWhat is the difference between Storage, Memory, and Calldata?\n- Storage: Persistent data that is stored on the blockchain\n- Memory: Temporary data that is erased after the transaction is completed\n- Calldata: Function arguments\n*/\n\ncontract Lottery {\n    // Rememeber: Using 'public' or 'private' enforces NO security over the data in the contract\n    // Much more for other developers to see if they can access this variable\n    //  - When we create a React app, we want to be able to access this variable to display on webpage\n    address public manager;\n    address[] public players;\n\n    constructor() {\n        // Set manager field to whoever creates this contract\n        manager = msg.sender;\n    }\n\n    function enterLottery() public payable {\n        require(msg.value > .01 ether);\n        players.push(msg.sender);\n    }\n\n    function random() private view returns (uint256) {\n        // Generate a random number based on the block hash and the current time\n        //  - This is not a secure way to generate a random number\n        //  - This is just for demonstration purposes\n        return\n            uint256(\n                keccak256(\n                    abi.encodePacked(block.difficulty, block.timestamp, players)\n                )\n            );\n    }\n\n    function pickWinner() public restricted {\n        uint256 index = random() % players.length;\n        payable(players[index]).transfer(address(this).balance);\n        players = new address[](0); // reset players array and create a new one with an initial length of 0\n    }\n\n    // Modifier functions are used to reduce code duplication\n    // Basically like a \"Do this before running the function\"\n    modifier restricted() {\n        require(msg.sender == manager); // Only the manager can pick the winner\n        _;\n    }\n}\n",
  "sourcePath": "/Users/nikhilaggarwal/vsCodeProjects/Udemy/BlockchainProjects/lottery/contracts/Lottery.sol",
  "compiler": {
    "name": "solc",
    "version": "0.8.13+commit.abaa5c0e.Emscripten.clang"
  },
  "schemaVersion": "3.4.10",
  "updatedAt": "2022-11-16T19:39:34.002Z",
  "devdoc": {
    "kind": "dev",
    "methods": {},
    "version": 1
  },
  "userdoc": {
    "kind": "user",
    "methods": {},
    "version": 1
  }
}