{
  "contractName": "AMM",
  "abi": [
    {
      "inputs": [
        {
          "internalType": "address",
          "name": "token1_address",
          "type": "address"
        },
        {
          "internalType": "address",
          "name": "token2_address",
          "type": "address"
        }
      ],
      "stateMutability": "nonpayable",
      "type": "constructor"
    },
    {
      "inputs": [
        {
          "internalType": "uint256",
          "name": "token1_in",
          "type": "uint256"
        },
        {
          "internalType": "uint256",
          "name": "token2_in",
          "type": "uint256"
        }
      ],
      "name": "AddLiquidity",
      "outputs": [
        {
          "internalType": "uint256",
          "name": "",
          "type": "uint256"
        }
      ],
      "stateMutability": "nonpayable",
      "type": "function"
    },
    {
      "inputs": [
        {
          "internalType": "uint256",
          "name": "share",
          "type": "uint256"
        }
      ],
      "name": "WithdrawLiquidity",
      "outputs": [
        {
          "internalType": "uint256",
          "name": "token1_return",
          "type": "uint256"
        },
        {
          "internalType": "uint256",
          "name": "token2_return",
          "type": "uint256"
        }
      ],
      "stateMutability": "nonpayable",
      "type": "function"
    },
    {
      "inputs": [
        {
          "internalType": "uint256",
          "name": "token_amount",
          "type": "uint256"
        }
      ],
      "name": "SwapToken",
      "outputs": [
        {
          "internalType": "uint256",
          "name": "return_token_amount",
          "type": "uint256"
        }
      ],
      "stateMutability": "nonpayable",
      "type": "function"
    }
  ],
  "bytecode": "0x60c060405234801561001057600080fd5b5060405162000f2638038062000f2683398181016040528101906100349190610106565b8173ffffffffffffffffffffffffffffffffffffffff1660808173ffffffffffffffffffffffffffffffffffffffff16815250508073ffffffffffffffffffffffffffffffffffffffff1660a08173ffffffffffffffffffffffffffffffffffffffff16815250505050610146565b600080fd5b600073ffffffffffffffffffffffffffffffffffffffff82169050919050565b60006100d3826100a8565b9050919050565b6100e3816100c8565b81146100ee57600080fd5b50565b600081519050610100816100da565b92915050565b6000806040838503121561011d5761011c6100a3565b5b600061012b858286016100f1565b925050602061013c858286016100f1565b9150509250929050565b60805160a051610d9f6200018760003960008181610219015281816103e8015261066301526000818160ec0152818161034601526105c30152610d9f6000f3fe608060405234801561001057600080fd5b50600436106100415760003560e01c806387c3d80814610046578063b0e01b2e14610077578063cb1652de146100a7575b600080fd5b610060600480360381019061005b91906107dd565b6100d7565b60405161006e929190610819565b60405180910390f35b610091600480360381019061008c91906107dd565b6100df565b60405161009e9190610842565b60405180910390f35b6100c160048036038101906100bc919061085d565b6100e6565b6040516100ce9190610842565b60405180910390f35b600080915091565b6000919050565b600033837f00000000000000000000000000000000000000000000000000000000000000006000821161014e576040517f08c379a000000000000000000000000000000000000000000000000000000000815260040161014590610920565b60405180910390fd5b6000828273ffffffffffffffffffffffffffffffffffffffff166370a08231866040518263ffffffff1660e01b815260040161018a9190610981565b602060405180830381865afa1580156101a7573d6000803e3d6000fd5b505050506040513d601f19601f820116820180604052508101906101cb91906109b1565b6101d59190610a0d565b11610215576040517f08c379a000000000000000000000000000000000000000000000000000000000815260040161020c90610ab3565b60405180910390fd5b33857f00000000000000000000000000000000000000000000000000000000000000006000821161027b576040517f08c379a000000000000000000000000000000000000000000000000000000000815260040161027290610920565b60405180910390fd5b6000828273ffffffffffffffffffffffffffffffffffffffff166370a08231866040518263ffffffff1660e01b81526004016102b79190610981565b602060405180830381865afa1580156102d4573d6000803e3d6000fd5b505050506040513d601f19601f820116820180604052508101906102f891906109b1565b6103029190610a0d565b11610342576040517f08c379a000000000000000000000000000000000000000000000000000000000815260040161033990610ab3565b60405180910390fd5b60007f000000000000000000000000000000000000000000000000000000000000000073ffffffffffffffffffffffffffffffffffffffff166323b872dd33308d6040518463ffffffff1660e01b81526004016103a193929190610ad3565b6020604051808303816000875af11580156103c0573d6000803e3d6000fd5b505050506040513d601f19601f820116820180604052508101906103e49190610b42565b90507f000000000000000000000000000000000000000000000000000000000000000073ffffffffffffffffffffffffffffffffffffffff166323b872dd33308c6040518463ffffffff1660e01b815260040161044393929190610ad3565b6020604051808303816000875af1158015610462573d6000803e3d6000fd5b505050506040513d601f19601f820116820180604052508101906104869190610b42565b801561048f5750805b9050806104d1576040517f08c379a00000000000000000000000000000000000000000000000000000000081526004016104c890610be1565b60405180910390fd5b600080600254036104f7576104f08a8c6104eb9190610c01565b610728565b905061057d565b60006002546000548d61050a9190610c72565b6105149190610c01565b905060006002546001548d6105299190610c72565b6105339190610c01565b9050808214610577576040517f08c379a000000000000000000000000000000000000000000000000000000000815260040161056e90610d15565b60405180910390fd5b81925050505b80600460003373ffffffffffffffffffffffffffffffffffffffff1673ffffffffffffffffffffffffffffffffffffffff168152602001908152602001600020819055507f000000000000000000000000000000000000000000000000000000000000000073ffffffffffffffffffffffffffffffffffffffff166370a08231306040518263ffffffff1660e01b815260040161061a9190610981565b602060405180830381865afa158015610637573d6000803e3d6000fd5b505050506040513d601f19601f8201168201806040525081019061065b91906109b1565b6000819055507f000000000000000000000000000000000000000000000000000000000000000073ffffffffffffffffffffffffffffffffffffffff166370a08231306040518263ffffffff1660e01b81526004016106ba9190610981565b602060405180830381865afa1580156106d7573d6000803e3d6000fd5b505050506040513d601f19601f820116820180604052508101906106fb91906109b1565b6001819055506001546000546107119190610c01565b600381905550809850505050505050505092915050565b6000600382111561078f57819050600060016002846107479190610c72565b6107519190610d35565b90505b8181101561078957809150600281828561076e9190610c72565b6107789190610d35565b6107829190610c72565b9050610754565b5061079d565b6000821461079c57600190505b5b919050565b600080fd5b6000819050919050565b6107ba816107a7565b81146107c557600080fd5b50565b6000813590506107d7816107b1565b92915050565b6000602082840312156107f3576107f26107a2565b5b6000610801848285016107c8565b91505092915050565b610813816107a7565b82525050565b600060408201905061082e600083018561080a565b61083b602083018461080a565b9392505050565b6000602082019050610857600083018461080a565b92915050565b60008060408385031215610874576108736107a2565b5b6000610882858286016107c8565b9250506020610893858286016107c8565b9150509250929050565b600082825260208201905092915050565b7f416d6f756e74206f6620746f6b656e7320737570706c696564206d757374206260008201527f652067726561746572207468616e203000000000000000000000000000000000602082015250565b600061090a60308361089d565b9150610915826108ae565b604082019050919050565b60006020820190508181036000830152610939816108fd565b9050919050565b600073ffffffffffffffffffffffffffffffffffffffff82169050919050565b600061096b82610940565b9050919050565b61097b81610960565b82525050565b60006020820190506109966000830184610972565b92915050565b6000815190506109ab816107b1565b92915050565b6000602082840312156109c7576109c66107a2565b5b60006109d58482850161099c565b91505092915050565b7f4e487b7100000000000000000000000000000000000000000000000000000000600052601160045260246000fd5b6000610a18826107a7565b9150610a23836107a7565b9250828203905081811115610a3b57610a3a6109de565b5b92915050565b7f7573657220646f6573206e6f74206861766520656e6f75676820746f6b656e7360008201527f20746f2073656e64000000000000000000000000000000000000000000000000602082015250565b6000610a9d60288361089d565b9150610aa882610a41565b604082019050919050565b60006020820190508181036000830152610acc81610a90565b9050919050565b6000606082019050610ae86000830186610972565b610af56020830185610972565b610b02604083018461080a565b949350505050565b60008115159050919050565b610b1f81610b0a565b8114610b2a57600080fd5b50565b600081519050610b3c81610b16565b92915050565b600060208284031215610b5857610b576107a2565b5b6000610b6684828501610b2d565b91505092915050565b7f546f6b656e207472616e7366657220776173206e6f742073756363657373667560008201527f6c00000000000000000000000000000000000000000000000000000000000000602082015250565b6000610bcb60218361089d565b9150610bd682610b6f565b604082019050919050565b60006020820190508181036000830152610bfa81610bbe565b9050919050565b6000610c0c826107a7565b9150610c17836107a7565b9250828202610c25816107a7565b91508282048414831517610c3c57610c3b6109de565b5b5092915050565b7f4e487b7100000000000000000000000000000000000000000000000000000000600052601260045260246000fd5b6000610c7d826107a7565b9150610c88836107a7565b925082610c9857610c97610c43565b5b828204905092915050565b7f6571756976616c656e74206e756d626572206f6620746f6b656e73206e6f742060008201527f737570706c696564202835303a353020414d4d29000000000000000000000000602082015250565b6000610cff60348361089d565b9150610d0a82610ca3565b604082019050919050565b60006020820190508181036000830152610d2e81610cf2565b9050919050565b6000610d40826107a7565b9150610d4b836107a7565b9250828201905080821115610d6357610d626109de565b5b9291505056fea2646970667358221220749584d33f99e47bb43260d5a502c7fb9ccd35356f1bd16ce35998190931dab864736f6c63430008110033",
  "immutableReferences": {
    "95": [
      {
        "length": 32,
        "start": 236
      },
      {
        "length": 32,
        "start": 838
      },
      {
        "length": 32,
        "start": 1475
      }
    ],
    "98": [
      {
        "length": 32,
        "start": 537
      },
      {
        "length": 32,
        "start": 1000
      },
      {
        "length": 32,
        "start": 1635
      }
    ]
  },
  "source": "// SPDX-License-Identifier: MIT\npragma solidity >=0.4.22 <0.9.0;\n\nimport \"@openzeppelin/contracts/token/ERC20/IERC20.sol\";\n\ncontract AMM {\n    uint256 token1_total; //token1 total supply\n    uint256 token2_total; //token2 total supply\n    uint256 total_shares; //total shares distributed to liquidity providers (LP)\n\n    uint256 K; // Constant K that represents the market constant: token1_total * token2_total = K\n\n    mapping(address => uint256) user_shares; // mapping of LP addresses to the shares they own\n\n    IERC20 immutable token1;\n    IERC20 immutable token2;\n\n    constructor(address token1_address, address token2_address) {\n        token1 = IERC20(token1_address);\n        token2 = IERC20(token2_address);\n    }\n\n    /////////// PRIVATE FUNCTIONS \\\\\\\\\\\\\\\\\\\\\\\n\n    function _sqrt(uint256 x) private pure returns (uint256 z) {\n        if (x > 3) {\n            z = x;\n            uint256 y = x / 2 + 1;\n            while (y < z) {\n                z = y;\n                y = (x / y + y) / 2;\n            }\n        } else if (x != 0) {\n            z = 1;\n        }\n    }\n\n    /////////// MODIFIER FUNCTIONS \\\\\\\\\\\\\\\\\\\\\\\n\n    modifier canSupplyToken(\n        address sdr,\n        uint256 token_in,\n        IERC20 token_type\n    ) {\n        require(\n            token_in > 0,\n            \"Amount of tokens supplied must be greater than 0\"\n        );\n        require(\n            (token_type.balanceOf(sdr) - token_in) > 0,\n            \"user does not have enough tokens to send\"\n        );\n        _;\n    }\n\n    /////////// CONTRACT FUNCTIONS \\\\\\\\\\\\\\\\\\\\\\\n\n    // Function allows users to add liquidity to the pool and gives them shares in return\n    // if the liquidity pool is originally empty, then\n    function AddLiquidity(uint256 token1_in, uint256 token2_in)\n        public\n        canSupplyToken(msg.sender, token1_in, token1)\n        canSupplyToken(msg.sender, token2_in, token2)\n        returns (uint256)\n    {\n        // Check if msg.sender has enough funds to run this transaction for the specified amount\n        // Withdraw token1_in and token2_in amounts from msg.sender\n        // if no shares exist (new AMM created):\n        //      - share_amount = sqrt(token1_in * token2_in)\n        // if shares DO exist:\n        //      - share1 = (token1_in / token1_total) * total_shares\n        //      - share2 = (token2_in / token2_total) * total_shares\n        //      - check if share1 == share2 (for now: this makes it easier to distribute shares)\n        //      - share_amount = share1\n        // set user_shares[msg.sender] = share_amount\n        // increase token1_total / token2_total by token1_in / token2_in\n        // recalculate constant K: K = token1_total * token2_total\n        // return share amount\n\n        bool didTransfer = token1.transferFrom(\n            msg.sender,\n            address(this),\n            token1_in\n        );\n        didTransfer =\n            token2.transferFrom(msg.sender, address(this), token2_in) &&\n            didTransfer;\n\n        require(didTransfer, \"Token transfer was not successful\");\n\n        uint256 share_amount;\n        if (total_shares == 0) {\n            // share_amount = sqrt(token1_in * token2_in)\n            share_amount = _sqrt(token1_in * token2_in);\n        } else {\n            // share1 = (token1_in / token1_total) * total_shares\n            uint256 share1 = (token1_in / token1_total) * total_shares;\n\n            // share2 = (token2_in / token2_total) * total_shares\n            uint256 share2 = (token2_in / token2_total) * total_shares;\n\n            require(\n                share1 == share2,\n                \"equivalent number of tokens not supplied (50:50 AMM)\"\n            );\n\n            share_amount = share1;\n        }\n        user_shares[msg.sender] = share_amount;\n        token1_total = token1.balanceOf(address(this));\n        token2_total = token2.balanceOf(address(this));\n\n        K = token1_total * token2_total;\n\n        return share_amount;\n    }\n\n    function WithdrawLiquidity(uint256 share)\n        public\n        returns (uint256 token1_return, uint256 token2_return)\n    {}\n\n    function SwapToken(uint256 token_amount)\n        public\n        returns (uint256 return_token_amount)\n    {}\n}\n",
  "sourcePath": "/Users/nikhilaggarwal/vsCodeProjects/Udemy/BlockchainProjects/amm/contracts/AMM.sol",
  "compiler": {
    "name": "solc",
    "version": "0.8.17+commit.8df45f5f.Emscripten.clang"
  },
  "schemaVersion": "3.4.10",
  "updatedAt": "2022-12-28T03:01:31.899Z",
  "networkType": "ethereum",
  "devdoc": {
    "kind": "dev",
    "methods": {},
    "version": 1
  },
  "userdoc": {
    "kind": "user",
    "methods": {},
    "version": 1
  }
}