{
  "contractName": "AMM",
  "abi": [
    {
      "inputs": [
        {
          "internalType": "address",
          "name": "token1_address",
          "type": "address"
        },
        {
          "internalType": "address",
          "name": "token2_address",
          "type": "address"
        }
      ],
      "stateMutability": "nonpayable",
      "type": "constructor"
    },
    {
      "inputs": [],
      "name": "K",
      "outputs": [
        {
          "internalType": "uint256",
          "name": "",
          "type": "uint256"
        }
      ],
      "stateMutability": "view",
      "type": "function",
      "constant": true
    },
    {
      "inputs": [],
      "name": "token1_total",
      "outputs": [
        {
          "internalType": "uint256",
          "name": "",
          "type": "uint256"
        }
      ],
      "stateMutability": "view",
      "type": "function",
      "constant": true
    },
    {
      "inputs": [],
      "name": "token2_total",
      "outputs": [
        {
          "internalType": "uint256",
          "name": "",
          "type": "uint256"
        }
      ],
      "stateMutability": "view",
      "type": "function",
      "constant": true
    },
    {
      "inputs": [],
      "name": "total_shares",
      "outputs": [
        {
          "internalType": "uint256",
          "name": "",
          "type": "uint256"
        }
      ],
      "stateMutability": "view",
      "type": "function",
      "constant": true
    },
    {
      "inputs": [
        {
          "internalType": "address",
          "name": "",
          "type": "address"
        }
      ],
      "name": "user_shares",
      "outputs": [
        {
          "internalType": "uint256",
          "name": "",
          "type": "uint256"
        }
      ],
      "stateMutability": "view",
      "type": "function",
      "constant": true
    },
    {
      "inputs": [
        {
          "internalType": "uint256",
          "name": "token1_in",
          "type": "uint256"
        },
        {
          "internalType": "uint256",
          "name": "token2_in",
          "type": "uint256"
        }
      ],
      "name": "AddLiquidity",
      "outputs": [
        {
          "internalType": "uint256",
          "name": "",
          "type": "uint256"
        }
      ],
      "stateMutability": "nonpayable",
      "type": "function"
    },
    {
      "inputs": [
        {
          "internalType": "uint256",
          "name": "share",
          "type": "uint256"
        }
      ],
      "name": "WithdrawLiquidity",
      "outputs": [
        {
          "internalType": "uint256",
          "name": "",
          "type": "uint256"
        },
        {
          "internalType": "uint256",
          "name": "",
          "type": "uint256"
        }
      ],
      "stateMutability": "nonpayable",
      "type": "function"
    },
    {
      "inputs": [
        {
          "internalType": "uint256",
          "name": "token_amount",
          "type": "uint256"
        }
      ],
      "name": "swapToken_1to2",
      "outputs": [
        {
          "internalType": "uint256",
          "name": "return_token_amount",
          "type": "uint256"
        }
      ],
      "stateMutability": "nonpayable",
      "type": "function"
    },
    {
      "inputs": [
        {
          "internalType": "uint256",
          "name": "token_amount",
          "type": "uint256"
        }
      ],
      "name": "swapToken_2to1",
      "outputs": [
        {
          "internalType": "uint256",
          "name": "return_token_amount",
          "type": "uint256"
        }
      ],
      "stateMutability": "nonpayable",
      "type": "function"
    }
  ],
  "bytecode": "0x60c06040523480156200001157600080fd5b5060405162001d7238038062001d72833981810160405281019062000037919062000111565b8173ffffffffffffffffffffffffffffffffffffffff1660808173ffffffffffffffffffffffffffffffffffffffff16815250508073ffffffffffffffffffffffffffffffffffffffff1660a08173ffffffffffffffffffffffffffffffffffffffff1681525050505062000158565b600080fd5b600073ffffffffffffffffffffffffffffffffffffffff82169050919050565b6000620000d982620000ac565b9050919050565b620000eb81620000cc565b8114620000f757600080fd5b50565b6000815190506200010b81620000e0565b92915050565b600080604083850312156200012b576200012a620000a7565b5b60006200013b85828601620000fa565b92505060206200014e85828601620000fa565b9150509250929050565b60805160a051611b84620001ee600039600081816104c80152818161056e015281816106320152818161075d015281816108000152818161098101528181610c6c01528181610e580152818161102701526112a201526000818161021f0152818161034a015281816103ed015281816108db01528181610bcb01528181610d2b01528181610f8501526112020152611b846000f3fe608060405234801561001057600080fd5b50600436106100935760003560e01c80637678c038116100665780637678c0381461014657806387c3d80814610164578063a932492f14610195578063c4d9d6a4146101b3578063cb1652de146101d157610093565b80630f836777146100985780633485243f146100c857806337afe2fc146100f85780635ae57f9e14610128575b600080fd5b6100b260048036038101906100ad9190611444565b610201565b6040516100bf919061148a565b60405180910390f35b6100e260048036038101906100dd91906114d1565b610219565b6040516100ef919061148a565b60405180910390f35b610112600480360381019061010d91906114d1565b61062c565b60405161011f919061148a565b60405180910390f35b610130610a3f565b60405161013d919061148a565b60405180910390f35b61014e610a45565b60405161015b919061148a565b60405180910390f35b61017e600480360381019061017991906114d1565b610a4b565b60405161018c9291906114fe565b60405180910390f35b61019d610d19565b6040516101aa919061148a565b60405180910390f35b6101bb610d1f565b6040516101c8919061148a565b60405180910390f35b6101eb60048036038101906101e69190611527565b610d25565b6040516101f8919061148a565b60405180910390f35b60046020528060005260406000206000915090505481565b600033827f000000000000000000000000000000000000000000000000000000000000000060008211610281576040517f08c379a0000000000000000000000000000000000000000000000000000000008152600401610278906115ea565b60405180910390fd5b6000828273ffffffffffffffffffffffffffffffffffffffff166370a08231866040518263ffffffff1660e01b81526004016102bd9190611619565b602060405180830381865afa1580156102da573d6000803e3d6000fd5b505050506040513d601f19601f820116820180604052508101906102fe9190611649565b61030891906116a5565b11610348576040517f08c379a000000000000000000000000000000000000000000000000000000000815260040161033f9061174b565b60405180910390fd5b7f000000000000000000000000000000000000000000000000000000000000000073ffffffffffffffffffffffffffffffffffffffff166323b872dd3330886040518463ffffffff1660e01b81526004016103a59392919061176b565b6020604051808303816000875af11580156103c4573d6000803e3d6000fd5b505050506040513d601f19601f820116820180604052508101906103e891906117da565b5060007f000000000000000000000000000000000000000000000000000000000000000073ffffffffffffffffffffffffffffffffffffffff166370a08231306040518263ffffffff1660e01b81526004016104449190611619565b602060405180830381865afa158015610461573d6000803e3d6000fd5b505050506040513d601f19601f820116820180604052508101906104859190611649565b90506000816003546104979190611836565b9050806001546104a791906116a5565b95506103e86103e3876104ba9190611867565b6104c49190611836565b95507f000000000000000000000000000000000000000000000000000000000000000073ffffffffffffffffffffffffffffffffffffffff1663a9059cbb33886040518363ffffffff1660e01b81526004016105219291906118a9565b6020604051808303816000875af1158015610540573d6000803e3d6000fd5b505050506040513d601f19601f8201168201806040525081019061056491906117da565b50816000819055507f000000000000000000000000000000000000000000000000000000000000000073ffffffffffffffffffffffffffffffffffffffff166370a08231306040518263ffffffff1660e01b81526004016105c59190611619565b602060405180830381865afa1580156105e2573d6000803e3d6000fd5b505050506040513d601f19601f820116820180604052508101906106069190611649565b60018190555060015460005461061c9190611867565b6003819055505050505050919050565b600033827f000000000000000000000000000000000000000000000000000000000000000060008211610694576040517f08c379a000000000000000000000000000000000000000000000000000000000815260040161068b906115ea565b60405180910390fd5b6000828273ffffffffffffffffffffffffffffffffffffffff166370a08231866040518263ffffffff1660e01b81526004016106d09190611619565b602060405180830381865afa1580156106ed573d6000803e3d6000fd5b505050506040513d601f19601f820116820180604052508101906107119190611649565b61071b91906116a5565b1161075b576040517f08c379a00000000000000000000000000000000000000000000000000000000081526004016107529061174b565b60405180910390fd5b7f000000000000000000000000000000000000000000000000000000000000000073ffffffffffffffffffffffffffffffffffffffff166323b872dd3330886040518463ffffffff1660e01b81526004016107b89392919061176b565b6020604051808303816000875af11580156107d7573d6000803e3d6000fd5b505050506040513d601f19601f820116820180604052508101906107fb91906117da565b5060007f000000000000000000000000000000000000000000000000000000000000000073ffffffffffffffffffffffffffffffffffffffff166370a08231306040518263ffffffff1660e01b81526004016108579190611619565b602060405180830381865afa158015610874573d6000803e3d6000fd5b505050506040513d601f19601f820116820180604052508101906108989190611649565b90506000816003546108aa9190611836565b9050806000546108ba91906116a5565b95506103e86103e3876108cd9190611867565b6108d79190611836565b95507f000000000000000000000000000000000000000000000000000000000000000073ffffffffffffffffffffffffffffffffffffffff1663a9059cbb33886040518363ffffffff1660e01b81526004016109349291906118a9565b6020604051808303816000875af1158015610953573d6000803e3d6000fd5b505050506040513d601f19601f8201168201806040525081019061097791906117da565b50816001819055507f000000000000000000000000000000000000000000000000000000000000000073ffffffffffffffffffffffffffffffffffffffff166370a08231306040518263ffffffff1660e01b81526004016109d89190611619565b602060405180830381865afa1580156109f5573d6000803e3d6000fd5b505050506040513d601f19601f82011682018060405250810190610a199190611649565b600081905550600154600054610a2f9190611867565b6003819055505050505050919050565b60015481565b60025481565b6000808260008111610a92576040517f08c379a0000000000000000000000000000000000000000000000000000000008152600401610a8990611944565b60405180910390fd5b600254811115610ad7576040517f08c379a0000000000000000000000000000000000000000000000000000000008152600401610ace906119d6565b60405180910390fd5b6000805460025486610ae99190611836565b610af39190611867565b90506000805460025487610b079190611836565b610b119190611867565b905081600080828254610b2491906116a5565b925050819055508060016000828254610b3d91906116a5565b9250508190555085600460003373ffffffffffffffffffffffffffffffffffffffff1673ffffffffffffffffffffffffffffffffffffffff1681526020019081526020016000206000828254610b9391906116a5565b925050819055508560026000828254610bac91906116a5565b92505081905550600154600054610bc39190611867565b6003819055507f000000000000000000000000000000000000000000000000000000000000000073ffffffffffffffffffffffffffffffffffffffff166323b872dd3033856040518463ffffffff1660e01b8152600401610c269392919061176b565b6020604051808303816000875af1158015610c45573d6000803e3d6000fd5b505050506040513d601f19601f82011682018060405250810190610c6991906117da565b507f000000000000000000000000000000000000000000000000000000000000000073ffffffffffffffffffffffffffffffffffffffff166323b872dd3033846040518463ffffffff1660e01b8152600401610cc79392919061176b565b6020604051808303816000875af1158015610ce6573d6000803e3d6000fd5b505050506040513d601f19601f82011682018060405250810190610d0a91906117da565b50818194509450505050915091565b60035481565b60005481565b600033837f000000000000000000000000000000000000000000000000000000000000000060008211610d8d576040517f08c379a0000000000000000000000000000000000000000000000000000000008152600401610d84906115ea565b60405180910390fd5b6000828273ffffffffffffffffffffffffffffffffffffffff166370a08231866040518263ffffffff1660e01b8152600401610dc99190611619565b602060405180830381865afa158015610de6573d6000803e3d6000fd5b505050506040513d601f19601f82011682018060405250810190610e0a9190611649565b610e1491906116a5565b11610e54576040517f08c379a0000000000000000000000000000000000000000000000000000000008152600401610e4b9061174b565b60405180910390fd5b33857f000000000000000000000000000000000000000000000000000000000000000060008211610eba576040517f08c379a0000000000000000000000000000000000000000000000000000000008152600401610eb1906115ea565b60405180910390fd5b6000828273ffffffffffffffffffffffffffffffffffffffff166370a08231866040518263ffffffff1660e01b8152600401610ef69190611619565b602060405180830381865afa158015610f13573d6000803e3d6000fd5b505050506040513d601f19601f82011682018060405250810190610f379190611649565b610f4191906116a5565b11610f81576040517f08c379a0000000000000000000000000000000000000000000000000000000008152600401610f789061174b565b60405180910390fd5b60007f000000000000000000000000000000000000000000000000000000000000000073ffffffffffffffffffffffffffffffffffffffff166323b872dd33308d6040518463ffffffff1660e01b8152600401610fe09392919061176b565b6020604051808303816000875af1158015610fff573d6000803e3d6000fd5b505050506040513d601f19601f8201168201806040525081019061102391906117da565b90507f000000000000000000000000000000000000000000000000000000000000000073ffffffffffffffffffffffffffffffffffffffff166323b872dd33308c6040518463ffffffff1660e01b81526004016110829392919061176b565b6020604051808303816000875af11580156110a1573d6000803e3d6000fd5b505050506040513d601f19601f820116820180604052508101906110c591906117da565b80156110ce5750805b905080611110576040517f08c379a000000000000000000000000000000000000000000000000000000000815260040161110790611a68565b60405180910390fd5b600080600254036111365761112f8a8c61112a9190611867565b611367565b90506111bc565b60006002546000548d6111499190611836565b6111539190611867565b905060006002546001548d6111689190611836565b6111729190611867565b90508082146111b6576040517f08c379a00000000000000000000000000000000000000000000000000000000081526004016111ad90611afa565b60405180910390fd5b81925050505b80600460003373ffffffffffffffffffffffffffffffffffffffff1673ffffffffffffffffffffffffffffffffffffffff168152602001908152602001600020819055507f000000000000000000000000000000000000000000000000000000000000000073ffffffffffffffffffffffffffffffffffffffff166370a08231306040518263ffffffff1660e01b81526004016112599190611619565b602060405180830381865afa158015611276573d6000803e3d6000fd5b505050506040513d601f19601f8201168201806040525081019061129a9190611649565b6000819055507f000000000000000000000000000000000000000000000000000000000000000073ffffffffffffffffffffffffffffffffffffffff166370a08231306040518263ffffffff1660e01b81526004016112f99190611619565b602060405180830381865afa158015611316573d6000803e3d6000fd5b505050506040513d601f19601f8201168201806040525081019061133a9190611649565b6001819055506001546000546113509190611867565b600381905550809850505050505050505092915050565b600060038211156113ce57819050600060016002846113869190611836565b6113909190611b1a565b90505b818110156113c85780915060028182856113ad9190611836565b6113b79190611b1a565b6113c19190611836565b9050611393565b506113dc565b600082146113db57600190505b5b919050565b600080fd5b600073ffffffffffffffffffffffffffffffffffffffff82169050919050565b6000611411826113e6565b9050919050565b61142181611406565b811461142c57600080fd5b50565b60008135905061143e81611418565b92915050565b60006020828403121561145a576114596113e1565b5b60006114688482850161142f565b91505092915050565b6000819050919050565b61148481611471565b82525050565b600060208201905061149f600083018461147b565b92915050565b6114ae81611471565b81146114b957600080fd5b50565b6000813590506114cb816114a5565b92915050565b6000602082840312156114e7576114e66113e1565b5b60006114f5848285016114bc565b91505092915050565b6000604082019050611513600083018561147b565b611520602083018461147b565b9392505050565b6000806040838503121561153e5761153d6113e1565b5b600061154c858286016114bc565b925050602061155d858286016114bc565b9150509250929050565b600082825260208201905092915050565b7f416d6f756e74206f6620746f6b656e7320737570706c696564206d757374206260008201527f652067726561746572207468616e203000000000000000000000000000000000602082015250565b60006115d4603083611567565b91506115df82611578565b604082019050919050565b60006020820190508181036000830152611603816115c7565b9050919050565b61161381611406565b82525050565b600060208201905061162e600083018461160a565b92915050565b600081519050611643816114a5565b92915050565b60006020828403121561165f5761165e6113e1565b5b600061166d84828501611634565b91505092915050565b7f4e487b7100000000000000000000000000000000000000000000000000000000600052601160045260246000fd5b60006116b082611471565b91506116bb83611471565b92508282039050818111156116d3576116d2611676565b5b92915050565b7f7573657220646f6573206e6f74206861766520656e6f75676820746f6b656e7360008201527f20746f2073656e64000000000000000000000000000000000000000000000000602082015250565b6000611735602883611567565b9150611740826116d9565b604082019050919050565b6000602082019050818103600083015261176481611728565b9050919050565b6000606082019050611780600083018661160a565b61178d602083018561160a565b61179a604083018461147b565b949350505050565b60008115159050919050565b6117b7816117a2565b81146117c257600080fd5b50565b6000815190506117d4816117ae565b92915050565b6000602082840312156117f0576117ef6113e1565b5b60006117fe848285016117c5565b91505092915050565b7f4e487b7100000000000000000000000000000000000000000000000000000000600052601260045260246000fd5b600061184182611471565b915061184c83611471565b92508261185c5761185b611807565b5b828204905092915050565b600061187282611471565b915061187d83611471565b925082820261188b81611471565b915082820484148315176118a2576118a1611676565b5b5092915050565b60006040820190506118be600083018561160a565b6118cb602083018461147b565b9392505050565b7f536861726520696e70757420616d6f756e74206d75737420626520677265617460008201527f6572207468616e20300000000000000000000000000000000000000000000000602082015250565b600061192e602983611567565b9150611939826118d2565b604082019050919050565b6000602082019050818103600083015261195d81611921565b9050919050565b7f536861726520696e70757420616d6f756e742063616e6e6f742065786365656460008201527f20746f74616c206e756d626572206f6620736861726573000000000000000000602082015250565b60006119c0603783611567565b91506119cb82611964565b604082019050919050565b600060208201905081810360008301526119ef816119b3565b9050919050565b7f546f6b656e207472616e7366657220776173206e6f742073756363657373667560008201527f6c00000000000000000000000000000000000000000000000000000000000000602082015250565b6000611a52602183611567565b9150611a5d826119f6565b604082019050919050565b60006020820190508181036000830152611a8181611a45565b9050919050565b7f6571756976616c656e74206e756d626572206f6620746f6b656e73206e6f742060008201527f737570706c696564202835303a353020414d4d29000000000000000000000000602082015250565b6000611ae4603483611567565b9150611aef82611a88565b604082019050919050565b60006020820190508181036000830152611b1381611ad7565b9050919050565b6000611b2582611471565b9150611b3083611471565b9250828201905080821115611b4857611b47611676565b5b9291505056fea2646970667358221220681da2bdf05ae16fc385b1643ccc7b54d81f265e21721ef91d4167b8802855c164736f6c63430008110033",
  "immutableReferences": {
    "95": [
      {
        "length": 32,
        "start": 543
      },
      {
        "length": 32,
        "start": 842
      },
      {
        "length": 32,
        "start": 1005
      },
      {
        "length": 32,
        "start": 2267
      },
      {
        "length": 32,
        "start": 3019
      },
      {
        "length": 32,
        "start": 3371
      },
      {
        "length": 32,
        "start": 3973
      },
      {
        "length": 32,
        "start": 4610
      }
    ],
    "98": [
      {
        "length": 32,
        "start": 1224
      },
      {
        "length": 32,
        "start": 1390
      },
      {
        "length": 32,
        "start": 1586
      },
      {
        "length": 32,
        "start": 1885
      },
      {
        "length": 32,
        "start": 2048
      },
      {
        "length": 32,
        "start": 2433
      },
      {
        "length": 32,
        "start": 3180
      },
      {
        "length": 32,
        "start": 3672
      },
      {
        "length": 32,
        "start": 4135
      },
      {
        "length": 32,
        "start": 4770
      }
    ]
  },
  "source": "// SPDX-License-Identifier: MIT\npragma solidity >=0.4.22 <0.9.0;\n\nimport \"@openzeppelin/contracts/token/ERC20/IERC20.sol\";\n\ncontract AMM {\n    uint256 public token1_total; //token1 total supply\n    uint256 public token2_total; //token2 total supply\n    uint256 public total_shares; //total shares distributed to liquidity providers (LP)\n\n    uint256 public K; // Constant K that represents the market constant: token1_total * token2_total = K\n\n    mapping(address => uint256) public user_shares; // mapping of LP addresses to the shares they own\n\n    IERC20 immutable token1;\n    IERC20 immutable token2;\n\n    constructor(address token1_address, address token2_address) {\n        token1 = IERC20(token1_address);\n        token2 = IERC20(token2_address);\n    }\n\n    /////////// PRIVATE FUNCTIONS \\\\\\\\\\\\\\\\\\\\\\\n\n    function _sqrt(uint256 x) private pure returns (uint256 z) {\n        if (x > 3) {\n            z = x;\n            uint256 y = x / 2 + 1;\n            while (y < z) {\n                z = y;\n                y = (x / y + y) / 2;\n            }\n        } else if (x != 0) {\n            z = 1;\n        }\n    }\n\n    /////////// MODIFIER FUNCTIONS \\\\\\\\\\\\\\\\\\\\\\\n\n    modifier canSupplyToken(\n        address sdr,\n        uint256 token_in,\n        IERC20 token_type\n    ) {\n        require(\n            token_in > 0,\n            \"Amount of tokens supplied must be greater than 0\"\n        );\n        require(\n            (token_type.balanceOf(sdr) - token_in) > 0,\n            \"user does not have enough tokens to send\"\n        );\n        _;\n    }\n\n    modifier hasValidShareAmount(uint256 share) {\n        require(share > 0, \"Share input amount must be greater than 0\");\n        require(\n            share <= total_shares,\n            \"Share input amount cannot exceed total number of shares\"\n        );\n        _;\n    }\n\n    /////////// CONTRACT FUNCTIONS \\\\\\\\\\\\\\\\\\\\\\\n\n    // Function allows users to add liquidity to the pool and gives them shares in return\n    // if the liquidity pool is originally empty, then\n    function AddLiquidity(uint256 token1_in, uint256 token2_in)\n        public\n        canSupplyToken(msg.sender, token1_in, token1)\n        canSupplyToken(msg.sender, token2_in, token2)\n        returns (uint256)\n    {\n        // Check if msg.sender has enough funds to run this transaction for the specified amount\n        // Withdraw token1_in and token2_in amounts from msg.sender\n        // if no shares exist (new AMM created):\n        //      - share_amount = sqrt(token1_in * token2_in)\n        // if shares DO exist:\n        //      - share1 = (token1_in / token1_total) * total_shares\n        //      - share2 = (token2_in / token2_total) * total_shares\n        //      - check if share1 == share2 (for now: this makes it easier to distribute shares)\n        //      - share_amount = share1\n        // set user_shares[msg.sender] = share_amount\n        // increase token1_total / token2_total by token1_in / token2_in\n        // recalculate constant K: K = token1_total * token2_total\n        // return share amount\n\n        bool didTransfer = token1.transferFrom(\n            msg.sender,\n            address(this),\n            token1_in\n        );\n        didTransfer =\n            token2.transferFrom(msg.sender, address(this), token2_in) &&\n            didTransfer;\n\n        require(didTransfer, \"Token transfer was not successful\");\n\n        uint256 share_amount;\n        if (total_shares == 0) {\n            // share_amount = sqrt(token1_in * token2_in)\n            share_amount = _sqrt(token1_in * token2_in);\n        } else {\n            // share1 = (token1_in / token1_total) * total_shares\n            uint256 share1 = (token1_in / token1_total) * total_shares;\n\n            // share2 = (token2_in / token2_total) * total_shares\n            uint256 share2 = (token2_in / token2_total) * total_shares;\n\n            require(\n                share1 == share2,\n                \"equivalent number of tokens not supplied (50:50 AMM)\"\n            );\n\n            share_amount = share1;\n        }\n        user_shares[msg.sender] = share_amount;\n        token1_total = token1.balanceOf(address(this));\n        token2_total = token2.balanceOf(address(this));\n\n        K = token1_total * token2_total;\n\n        return share_amount;\n    }\n\n    // Function allows users with shares in the liquidity pool to \"cash in\" their shares for the tokens they put in\n    function WithdrawLiquidity(uint256 share)\n        public\n        hasValidShareAmount(share)\n        returns (uint256, uint256)\n    {\n        /*\n        - Make sure share > 0\n        - Make sure share <= total_shares\n\n        - Calculate token amount for given amount of shares:\n            - amount_tokenX = (share / total_shares) * total_tokenX  <== do this for both token1 and token1\n        - Remove liquidity from pool:\n            - total_tokenX =  -= amount_tokenX\n        - Reduce msg.sender's share amount from mapping\n        - Reduce total_shares amount by share\n        - Transfer tokenX from this contract to msg.sender\n\n        */\n        uint256 amount_token1 = (share / total_shares) * token1_total;\n        uint256 amount_token2 = (share / total_shares) * token1_total;\n\n        token1_total -= amount_token1;\n        token2_total -= amount_token2;\n\n        user_shares[msg.sender] -= share;\n        total_shares -= share;\n\n        K = token1_total * token2_total;\n\n        token1.transferFrom(address(this), msg.sender, amount_token1);\n        token2.transferFrom(address(this), msg.sender, amount_token2);\n\n        return (amount_token1, amount_token2);\n    }\n\n    // function SwapToken(address token_address, uint256 token_amount)\n    //     public\n    //     canSupplyToken(msg.sender, token_amount, token_address)\n    //     returns (uint256 return_token_amount)\n    // {\n    //     /*\n    //     - Check if user has supplied valid token amount\n    //     */\n\n    //     (IERC20 token_in, IERC20 token_out) = token_address == token1\n    //         ? (token1, token2)\n    //         : (token2, token1);\n\n    //     token_in.transferFrom(msg.sender, address(this), token_amount);\n    //     uint256 fee_token_in = (token_amount * 995) / 1000;\n\n    //     uint256 token_out_amt =\n\n    // }\n\n    function swapToken_1to2(uint256 token_amount)\n        public\n        canSupplyToken(msg.sender, token_amount, token1)\n        returns (uint256 return_token_amount)\n    {\n        /*\n        - Check if user has supplied valid token amount\n        */\n\n        token1.transferFrom(msg.sender, address(this), token_amount);\n        uint256 final_token1 = token1.balanceOf(address(this));\n\n        uint256 final_token2 = K / final_token1;\n        return_token_amount = token2_total - final_token2;\n\n        // Take a 0.5% fee\n        return_token_amount = (return_token_amount * 995) / 1000;\n\n        token2.transfer(msg.sender, return_token_amount);\n\n        //update token1_amount, and token2_amount\n\n        token1_total = final_token1;\n        token2_total = token2.balanceOf(address(this));\n        //update K\n\n        K = token1_total * token2_total;\n    }\n\n    // Separated the functions to because of the reduced gas fees\n    function swapToken_2to1(uint256 token_amount)\n        public\n        canSupplyToken(msg.sender, token_amount, token2)\n        returns (uint256 return_token_amount)\n    {\n        /*\n        - Check if user has supplied valid token amount\n        */\n\n        token2.transferFrom(msg.sender, address(this), token_amount);\n        uint256 final_token2 = token2.balanceOf(address(this));\n\n        uint256 final_token1 = K / final_token2;\n        return_token_amount = token1_total - final_token1;\n\n        // Take a 0.5% fee\n        return_token_amount = (return_token_amount * 995) / 1000;\n\n        token1.transfer(msg.sender, return_token_amount);\n\n        //update token1_amount, and token2_amount\n\n        token2_total = final_token2;\n        token1_total = token2.balanceOf(address(this));\n        //update K\n\n        K = token1_total * token2_total;\n    }\n}\n",
  "sourcePath": "/Users/nikhilaggarwal/vsCodeProjects/Udemy/BlockchainProjects/amm/contracts/AMM.sol",
  "compiler": {
    "name": "solc",
    "version": "0.8.17+commit.8df45f5f.Emscripten.clang"
  },
  "schemaVersion": "3.4.10",
  "updatedAt": "2023-01-04T00:44:36.957Z",
  "networkType": "ethereum",
  "devdoc": {
    "kind": "dev",
    "methods": {},
    "version": 1
  },
  "userdoc": {
    "kind": "user",
    "methods": {},
    "version": 1
  }
}