{
  "contractName": "AMM",
  "abi": [
    {
      "inputs": [
        {
          "internalType": "address",
          "name": "token1_address",
          "type": "address"
        },
        {
          "internalType": "address",
          "name": "token2_address",
          "type": "address"
        }
      ],
      "stateMutability": "nonpayable",
      "type": "constructor"
    },
    {
      "inputs": [
        {
          "internalType": "uint256",
          "name": "token1",
          "type": "uint256"
        },
        {
          "internalType": "uint256",
          "name": "token2",
          "type": "uint256"
        }
      ],
      "name": "AddLiquidity",
      "outputs": [
        {
          "internalType": "uint256",
          "name": "share",
          "type": "uint256"
        }
      ],
      "stateMutability": "nonpayable",
      "type": "function"
    },
    {
      "inputs": [
        {
          "internalType": "uint256",
          "name": "share",
          "type": "uint256"
        }
      ],
      "name": "WithdrawLiquidity",
      "outputs": [
        {
          "internalType": "uint256",
          "name": "token1",
          "type": "uint256"
        },
        {
          "internalType": "uint256",
          "name": "token2",
          "type": "uint256"
        }
      ],
      "stateMutability": "nonpayable",
      "type": "function"
    },
    {
      "inputs": [
        {
          "internalType": "uint256",
          "name": "token_amount",
          "type": "uint256"
        }
      ],
      "name": "SwapToken",
      "outputs": [
        {
          "internalType": "uint256",
          "name": "return_token_amount",
          "type": "uint256"
        }
      ],
      "stateMutability": "nonpayable",
      "type": "function"
    }
  ],
  "bytecode": "0x608060405234801561001057600080fd5b5060405161038c38038061038c8339818101604052810190610032919061011e565b81600560006101000a81548173ffffffffffffffffffffffffffffffffffffffff021916908373ffffffffffffffffffffffffffffffffffffffff16021790555080600660006101000a81548173ffffffffffffffffffffffffffffffffffffffff021916908373ffffffffffffffffffffffffffffffffffffffff160217905550505061015e565b600080fd5b600073ffffffffffffffffffffffffffffffffffffffff82169050919050565b60006100eb826100c0565b9050919050565b6100fb816100e0565b811461010657600080fd5b50565b600081519050610118816100f2565b92915050565b60008060408385031215610135576101346100bb565b5b600061014385828601610109565b925050602061015485828601610109565b9150509250929050565b61021f8061016d6000396000f3fe608060405234801561001057600080fd5b50600436106100415760003560e01c806387c3d80814610046578063b0e01b2e14610077578063cb1652de146100a7575b600080fd5b610060600480360381019061005b9190610129565b6100d7565b60405161006e929190610165565b60405180910390f35b610091600480360381019061008c9190610129565b6100df565b60405161009e919061018e565b60405180910390f35b6100c160048036038101906100bc91906101a9565b6100e6565b6040516100ce919061018e565b60405180910390f35b600080915091565b6000919050565b600092915050565b600080fd5b6000819050919050565b610106816100f3565b811461011157600080fd5b50565b600081359050610123816100fd565b92915050565b60006020828403121561013f5761013e6100ee565b5b600061014d84828501610114565b91505092915050565b61015f816100f3565b82525050565b600060408201905061017a6000830185610156565b6101876020830184610156565b9392505050565b60006020820190506101a36000830184610156565b92915050565b600080604083850312156101c0576101bf6100ee565b5b60006101ce85828601610114565b92505060206101df85828601610114565b915050925092905056fea2646970667358221220dcdf55f6eb127526c4f2d40cb384563acebcb1ab39abf7d740d18599cb5722c064736f6c63430008110033",
  "immutableReferences": {},
  "source": "// SPDX-License-Identifier: MIT\npragma solidity >=0.4.22 <0.9.0;\n\nimport \"@openzeppelin/contracts/utils/math/SafeMath.sol\";\nimport \"@openzeppelin/contracts/token/ERC20/IERC20.sol\";\n\ncontract AMM {\n    using SafeMath for uint256;\n\n    uint256 token1_total; //token1 total supply\n    uint256 token2_total; //token2 total supply\n    uint256 totalShares; //total shares distributed to liquidity providers (LP)\n\n    uint256 K; // Constant K that represents the market constant: token1_total * token2_total = K\n\n    mapping(address => uint256) shareMap; // mapping of LP addresses to the shares they own\n\n    IERC20 token1;\n    IERC20 token2;\n\n    constructor(address token1_address, address token2_address) public {\n        token1 = IERC20(token1_address);\n        token2 = IERC20(token2_address);\n    }\n\n    // Function allows users to add liquidity to the pool and gives them shares in return\n    // if the liquidity pool is originally empty, then\n    function AddLiquidity(uint256 token1, uint256 token2)\n        public\n        returns (uint256 share)\n    {}\n\n    function WithdrawLiquidity(uint256 share)\n        public\n        returns (uint256 token1, uint256 token2)\n    {}\n\n    function SwapToken(uint256 token_amount)\n        public\n        returns (uint256 return_token_amount)\n    {}\n}\n",
  "sourcePath": "/Users/nikhilaggarwal/vsCodeProjects/Udemy/BlockchainProjects/amm/contracts/AMM.sol",
  "compiler": {
    "name": "solc",
    "version": "0.8.17+commit.8df45f5f.Emscripten.clang"
  },
  "schemaVersion": "3.4.10",
  "updatedAt": "2022-12-26T04:55:45.281Z",
  "devdoc": {
    "kind": "dev",
    "methods": {},
    "version": 1
  },
  "userdoc": {
    "kind": "user",
    "methods": {},
    "version": 1
  }
}